{
  "contractName": "Poll",
  "abi": [
    {
      "anonymous": false,
      "inputs": [
        {
          "indexed": true,
          "internalType": "address",
          "name": "previousOwner",
          "type": "address"
        },
        {
          "indexed": true,
          "internalType": "address",
          "name": "newOwner",
          "type": "address"
        }
      ],
      "name": "OwnershipTransferred",
      "type": "event"
    },
    {
      "anonymous": false,
      "inputs": [
        {
          "indexed": true,
          "internalType": "address",
          "name": "voter",
          "type": "address"
        },
        {
          "indexed": false,
          "internalType": "uint8",
          "name": "decision",
          "type": "uint8"
        }
      ],
      "name": "Vote",
      "type": "event"
    },
    {
      "inputs": [],
      "name": "owner",
      "outputs": [
        {
          "internalType": "address",
          "name": "",
          "type": "address"
        }
      ],
      "stateMutability": "view",
      "type": "function",
      "constant": true
    },
    {
      "inputs": [],
      "name": "renounceOwnership",
      "outputs": [],
      "stateMutability": "nonpayable",
      "type": "function"
    },
    {
      "inputs": [],
      "name": "started",
      "outputs": [
        {
          "internalType": "bool",
          "name": "",
          "type": "bool"
        }
      ],
      "stateMutability": "view",
      "type": "function",
      "constant": true
    },
    {
      "inputs": [
        {
          "internalType": "uint8",
          "name": "",
          "type": "uint8"
        }
      ],
      "name": "totalVotesFor",
      "outputs": [
        {
          "internalType": "uint256",
          "name": "",
          "type": "uint256"
        }
      ],
      "stateMutability": "view",
      "type": "function",
      "constant": true
    },
    {
      "inputs": [
        {
          "internalType": "address",
          "name": "newOwner",
          "type": "address"
        }
      ],
      "name": "transferOwnership",
      "outputs": [],
      "stateMutability": "nonpayable",
      "type": "function"
    },
    {
      "inputs": [],
      "name": "voteCount",
      "outputs": [
        {
          "internalType": "uint256",
          "name": "",
          "type": "uint256"
        }
      ],
      "stateMutability": "view",
      "type": "function",
      "constant": true
    },
    {
      "inputs": [
        {
          "internalType": "address",
          "name": "",
          "type": "address"
        }
      ],
      "name": "votedFor",
      "outputs": [
        {
          "internalType": "uint8",
          "name": "",
          "type": "uint8"
        }
      ],
      "stateMutability": "view",
      "type": "function",
      "constant": true
    },
    {
      "inputs": [
        {
          "internalType": "uint8",
          "name": "decision",
          "type": "uint8"
        }
      ],
      "name": "vote",
      "outputs": [],
      "stateMutability": "nonpayable",
      "type": "function"
    },
    {
      "inputs": [],
      "name": "start",
      "outputs": [],
      "stateMutability": "nonpayable",
      "type": "function"
    },
    {
      "inputs": [],
      "name": "voterCount",
      "outputs": [
        {
          "internalType": "uint256",
          "name": "",
          "type": "uint256"
        }
      ],
      "stateMutability": "view",
      "type": "function",
      "constant": true
    },
    {
      "inputs": [],
      "name": "getVoters",
      "outputs": [
        {
          "internalType": "address[]",
          "name": "",
          "type": "address[]"
        }
      ],
      "stateMutability": "view",
      "type": "function",
      "constant": true
    },
    {
      "inputs": [
        {
          "internalType": "address[]",
          "name": "_voters",
          "type": "address[]"
        }
      ],
      "name": "addVoters",
      "outputs": [],
      "stateMutability": "nonpayable",
      "type": "function"
    }
  ],
  "bytecode": "0x60806040526003805460ff19169055600060045534801561001f57600080fd5b506100293361002e565b61007e565b600080546001600160a01b038381166001600160a01b0319831681178455604051919092169283917f8be0079c531659141344cd1fd0a4f28419497f9722a3daafe3b4186f6b6457e09190a35050565b610a418061008d6000396000f3fe608060405234801561001057600080fd5b50600436106100b45760003560e01c8063b3f98adc11610071578063b3f98adc14610149578063be9a65551461015c578063c638407114610164578063cdd722531461016d578063f2fde38b14610182578063f594f13f1461019557600080fd5b80631f2698ab146100b957806342169e48146100db5780635852befa146100f1578063715018a6146101115780638203373a1461011b5780638da5cb5b1461012e575b600080fd5b6003546100c69060ff1681565b60405190151581526020015b60405180910390f35b6100e36101ca565b6040519081526020016100d2565b6100e36100ff366004610856565b60066020526000908152604090205481565b6101196101db565b005b610119610129366004610879565b61021a565b6000546040516001600160a01b0390911681526020016100d2565b610119610157366004610856565b610320565b6101196104d3565b6100e360045481565b610175610551565b6040516100d291906108ee565b61011961019036600461093b565b61055d565b6101b86101a336600461093b565b60056020526000908152604090205460ff1681565b60405160ff90911681526020016100d2565b60006101d660016105f8565b905090565b6000546001600160a01b0316331461020e5760405162461bcd60e51b815260040161020590610964565b60405180910390fd5b6102186000610608565b565b6000546001600160a01b031633146102445760405162461bcd60e51b815260040161020590610964565b60035460ff16156102905760405162461bcd60e51b8152602060048201526016602482015275159bdd1a5b99c8185b1c9958591e481cdd185c9d195960521b6044820152606401610205565b806102cb5760405162461bcd60e51b815260206004820152600b60248201526a656d70747920617272617960a81b6044820152606401610205565b60005b8181101561031b576103088383838181106102eb576102eb610999565b9050602002016020810190610300919061093b565b600190610658565b5080610313816109c5565b9150506102ce565b505050565b60035460ff166103605760405162461bcd60e51b815260206004820152600b60248201526a1b9bdd081cdd185c9d195960aa1b6044820152606401610205565b8060ff166000036103a45760405162461bcd60e51b815260206004820152600e60248201526d3bb937b733903232b1b4b9b4b7b760911b6044820152606401610205565b3360009081526005602052604090205460ff16156103f45760405162461bcd60e51b815260206004820152600d60248201526c185b1c9958591e481d9bdd1959609a1b6044820152606401610205565b6103ff600133610674565b61043b5760405162461bcd60e51b815260206004820152600d60248201526c796f752063616e7420766f746560981b6044820152606401610205565b610446600133610696565b50336000908152600560209081526040808320805460ff191660ff861690811790915583526006909152812080549161047e836109c5565b909155505060048054906000610493836109c5565b909155505060405160ff8216815233907f5579f99982aa469ba774030720ca9b44b56718c5ac9274754502a3c044811c739060200160405180910390a250565b6000546001600160a01b031633146104fd5760405162461bcd60e51b815260040161020590610964565b60035460ff16156105425760405162461bcd60e51b815260206004820152600f60248201526e185b1c9958591e481cdd185c9d1959608a1b6044820152606401610205565b6003805460ff19166001179055565b60606101d660016106ab565b6000546001600160a01b031633146105875760405162461bcd60e51b815260040161020590610964565b6001600160a01b0381166105ec5760405162461bcd60e51b815260206004820152602660248201527f4f776e61626c653a206e6577206f776e657220697320746865207a65726f206160448201526564647265737360d01b6064820152608401610205565b6105f581610608565b50565b6000610602825490565b92915050565b600080546001600160a01b038381166001600160a01b0319831681178455604051919092169283917f8be0079c531659141344cd1fd0a4f28419497f9722a3daafe3b4186f6b6457e09190a35050565b600061066d836001600160a01b0384166106b8565b9392505050565b6001600160a01b0381166000908152600183016020526040812054151561066d565b600061066d836001600160a01b038416610707565b6060600061066d836107fa565b60008181526001830160205260408120546106ff57508154600181810184556000848152602080822090930184905584548482528286019093526040902091909155610602565b506000610602565b600081815260018301602052604081205480156107f057600061072b6001836109de565b855490915060009061073f906001906109de565b90508181146107a457600086600001828154811061075f5761075f610999565b906000526020600020015490508087600001848154811061078257610782610999565b6000918252602080832090910192909255918252600188019052604090208390555b85548690806107b5576107b56109f5565b600190038181906000526020600020016000905590558560010160008681526020019081526020016000206000905560019350505050610602565b6000915050610602565b60608160000180548060200260200160405190810160405280929190818152602001828054801561084a57602002820191906000526020600020905b815481526020019060010190808311610836575b50505050509050919050565b60006020828403121561086857600080fd5b813560ff8116811461066d57600080fd5b6000806020838503121561088c57600080fd5b823567ffffffffffffffff808211156108a457600080fd5b818501915085601f8301126108b857600080fd5b8135818111156108c757600080fd5b8660208260051b85010111156108dc57600080fd5b60209290920196919550909350505050565b6020808252825182820181905260009190848201906040850190845b8181101561092f5783516001600160a01b03168352928401929184019160010161090a565b50909695505050505050565b60006020828403121561094d57600080fd5b81356001600160a01b038116811461066d57600080fd5b6020808252818101527f4f776e61626c653a2063616c6c6572206973206e6f7420746865206f776e6572604082015260600190565b634e487b7160e01b600052603260045260246000fd5b634e487b7160e01b600052601160045260246000fd5b6000600182016109d7576109d76109af565b5060010190565b6000828210156109f0576109f06109af565b500390565b634e487b7160e01b600052603160045260246000fdfea26469706673582212208f705179c262fe464b043156c21d64ef969f935787bbb162ba5d5c45bf9ff35564736f6c634300080d0033",
  "immutableReferences": {},
  "source": "// SPDX-License-Identifier: MIT\npragma solidity =0.8.13;\n\nimport '@openzeppelin/contracts/access/Ownable.sol';\nimport '@openzeppelin/contracts/utils/structs/EnumerableSet.sol';\n\ncontract Poll is Ownable {\n  using EnumerableSet for EnumerableSet.AddressSet;\n\n  EnumerableSet.AddressSet private voters;\n\n  bool public started = false;\n  uint256 public voteCount = 0;\n\n  mapping (address => uint8) public votedFor;\n  mapping (uint8 => uint256) public totalVotesFor;\n\n  event Vote (address indexed voter, uint8 decision);\n  \n  function vote(uint8 decision) external {\n    require (started, 'not started');\n    require (decision != 0, 'wrong decision');\n    require (votedFor[msg.sender] == 0, 'already voted');\n    require (voters.contains(msg.sender), 'you can''t vote');\n    voters.remove(msg.sender);\n    votedFor[msg.sender] = decision;\n    totalVotesFor[decision]++;\n    voteCount++;\n    emit Vote(msg.sender, decision);\n  }\n\n  function start() external onlyOwner {\n    require (!started, 'already started');\n    started = true;\n  }\n\n  function voterCount() view external returns (uint256) {\n    return voters.length();\n  }\n\n  function getVoters() view external returns (address[] memory) {\n    return voters.values();\n  }\n\n  function addVoters(address[] calldata _voters) external onlyOwner {\n    require (!started, 'Voting already started');\n    require (_voters.length > 0, 'empty array');\n    for (uint256 i = 0; i < _voters.length; i++) {\n      voters.add(_voters[i]);\n    }\n  }\n}\n",
  "sourcePath": "/Users/kek/one-time-poll/contracts/Poll.sol",
  "compiler": {
    "name": "solc",
    "version": "0.8.13+commit.abaa5c0e.Emscripten.clang"
  },
  "schemaVersion": "3.4.3",
  "updatedAt": "2022-04-14T11:24:54.627Z",
  "networkType": "ethereum",
  "devdoc": {
    "kind": "dev",
    "methods": {
      "owner()": {
        "details": "Returns the address of the current owner."
      },
      "renounceOwnership()": {
        "details": "Leaves the contract without owner. It will not be possible to call `onlyOwner` functions anymore. Can only be called by the current owner. NOTE: Renouncing ownership will leave the contract without an owner, thereby removing any functionality that is only available to the owner."
      },
      "transferOwnership(address)": {
        "details": "Transfers ownership of the contract to a new account (`newOwner`). Can only be called by the current owner."
      }
    },
    "version": 1
  },
  "userdoc": {
    "kind": "user",
    "methods": {},
    "version": 1
  }
}